{
  "contractName": "ERC721",
  "abi": [
    {
      "anonymous": false,
      "inputs": [
        {
          "indexed": true,
          "internalType": "address",
          "name": "from",
          "type": "address"
        },
        {
          "indexed": true,
          "internalType": "address",
          "name": "to",
          "type": "address"
        },
        {
          "indexed": true,
          "internalType": "uint256",
          "name": "tokenId",
          "type": "uint256"
        }
      ],
      "name": "Transfer",
      "type": "event"
    },
    {
      "inputs": [
        {
          "internalType": "address",
          "name": "_owner",
          "type": "address"
        }
      ],
      "name": "balanceOf",
      "outputs": [
        {
          "internalType": "uint256",
          "name": "",
          "type": "uint256"
        }
      ],
      "stateMutability": "view",
      "type": "function"
    },
    {
      "inputs": [
        {
          "internalType": "uint256",
          "name": "_tokenId",
          "type": "uint256"
        }
      ],
      "name": "ownerOf",
      "outputs": [
        {
          "internalType": "address",
          "name": "",
          "type": "address"
        }
      ],
      "stateMutability": "view",
      "type": "function"
    },
    {
      "inputs": [
        {
          "internalType": "address",
          "name": "_from",
          "type": "address"
        },
        {
          "internalType": "address",
          "name": "_to",
          "type": "address"
        },
        {
          "internalType": "uint256",
          "name": "_tokenId",
          "type": "uint256"
        }
      ],
      "name": "transferFrom",
      "outputs": [],
      "stateMutability": "payable",
      "type": "function"
    }
  ],
  "bytecode": "0x608060405234801561001057600080fd5b506106ad806100206000396000f3fe6080604052600436106100345760003560e01c806323b872dd146100395780636352211e1461005557806370a0823114610092575b600080fd5b610053600480360381019061004e91906103d4565b6100cf565b005b34801561006157600080fd5b5061007c60048036038101906100779190610427565b6101d2565b6040516100899190610463565b60405180910390f35b34801561009e57600080fd5b506100b960048036038101906100b4919061047e565b610283565b6040516100c691906104ba565b60405180910390f35b816002600083815260200190815260200160002060006101000a81548173ffffffffffffffffffffffffffffffffffffffff021916908373ffffffffffffffffffffffffffffffffffffffff16021790555060018060008573ffffffffffffffffffffffffffffffffffffffff1673ffffffffffffffffffffffffffffffffffffffff16815260200190815260200160002060008282546101709190610504565b9250508190555060018060008473ffffffffffffffffffffffffffffffffffffffff1673ffffffffffffffffffffffffffffffffffffffff16815260200190815260200160002060008282546101c69190610538565b92505081905550505050565b60008060008084815260200190815260200160002060009054906101000a900473ffffffffffffffffffffffffffffffffffffffff169050600073ffffffffffffffffffffffffffffffffffffffff168173ffffffffffffffffffffffffffffffffffffffff16141561027a576040517f08c379a0000000000000000000000000000000000000000000000000000000008152600401610271906105eb565b60405180910390fd5b80915050919050565b60008073ffffffffffffffffffffffffffffffffffffffff168273ffffffffffffffffffffffffffffffffffffffff1614156102f4576040517f08c379a00000000000000000000000000000000000000000000000000000000081526004016102eb90610657565b60405180910390fd5b600160008373ffffffffffffffffffffffffffffffffffffffff1673ffffffffffffffffffffffffffffffffffffffff168152602001908152602001600020549050919050565b600080fd5b600073ffffffffffffffffffffffffffffffffffffffff82169050919050565b600061036b82610340565b9050919050565b61037b81610360565b811461038657600080fd5b50565b60008135905061039881610372565b92915050565b6000819050919050565b6103b18161039e565b81146103bc57600080fd5b50565b6000813590506103ce816103a8565b92915050565b6000806000606084860312156103ed576103ec61033b565b5b60006103fb86828701610389565b935050602061040c86828701610389565b925050604061041d868287016103bf565b9150509250925092565b60006020828403121561043d5761043c61033b565b5b600061044b848285016103bf565b91505092915050565b61045d81610360565b82525050565b60006020820190506104786000830184610454565b92915050565b6000602082840312156104945761049361033b565b5b60006104a284828501610389565b91505092915050565b6104b48161039e565b82525050565b60006020820190506104cf60008301846104ab565b92915050565b7f4e487b7100000000000000000000000000000000000000000000000000000000600052601160045260246000fd5b600061050f8261039e565b915061051a8361039e565b92508282101561052d5761052c6104d5565b5b828203905092915050565b60006105438261039e565b915061054e8361039e565b9250827fffffffffffffffffffffffffffffffffffffffffffffffffffffffffffffffff03821115610583576105826104d5565b5b828201905092915050565b600082825260208201905092915050565b7f546f6b656e204944206e6f742076616c69642100000000000000000000000000600082015250565b60006105d560138361058e565b91506105e08261059f565b602082019050919050565b60006020820190508181036000830152610604816105c8565b9050919050565b7f41646472657373206d75737420626520612076616c6964206164647265737300600082015250565b6000610641601f8361058e565b915061064c8261060b565b602082019050919050565b6000602082019050818103600083015261067081610634565b905091905056fea264697066735822122018afaa84cacc1478e6b74850be5b81527eeacb24066a05e8550c2e0ce32509a964736f6c634300080b0033",
  "immutableReferences": {},
  "source": "// SPDX-License-Identifier: MIT\npragma solidity ^0.8.11;\n\n/**\nBuilding out the minting function:\na. NFT to point to an Address\nb. Keep track of token IDs\nc. Keep track of token owner addresses to token ID\nd. Keep track of how many tokens an address has\ne. Create an event that emits a Transfer log: contract address, where it's minted to and IDs\n */\ncontract ERC721 {\n\n    event Transfer(\n        address indexed from,\n        address indexed to,\n        uint256 indexed tokenId\n    );\n\n    // Mapping of token ID to owner address\n    mapping(uint256 => address) private _tokenOwner;\n\n    // mapping of owner address to token count\n    mapping(address => uint256) private _balances;\n\n    // mapping from token ID to approved addresses\n    mapping (uint256 => address) private _tokenApprovals;\n\n    /// @notice Count all NFTs assigned to an owner\n    /// @dev NFTs assigned to the zero address are considered invalid, and this\n    ///  function throws for queries about the zero address.\n    /// @param _owner An address for whom to query the balance\n    /// @return The number of NFTs owned by `_owner`, possibly zero\n    function balanceOf(address _owner) view public returns (uint256) {\n        require(\n            _owner != address(0),\n            'Address must be a valid address'\n        );\n        return _balances[_owner];\n    }\n\n    /// @notice Find the owner of an NFT\n    /// @dev NFTs assigned to zero address are considered invalid, and queries\n    ///  about them do throw.\n    /// @param _tokenId The identifier for an NFT\n    /// @return The address of the owner of the NFT\n    function ownerOf(uint256 _tokenId) external view returns (address) {\n        address owner = _tokenOwner[_tokenId];\n        require(owner != address(0), 'Token ID not valid!');\n        return owner;\n    }\n\n    function _exists(uint256 tokenId) view internal returns (bool) {\n        address owner = _tokenOwner[tokenId];\n        // return truthiness or owner address\n        return owner != address(0);\n    }\n\n    function _mint(address to, uint256 tokenId) internal virtual {\n        require(\n            to != address(0),\n            \"ERC721: mint address must be a valid address!\"\n        );\n\n        require(\n            !_exists(tokenId),\n            \"ERC721: token has already been minted!\"\n        );\n\n        _tokenOwner[tokenId] = to;\n        _balances[to] += 1;\n\n        emit Transfer(address(0), to, tokenId);\n    }\n\n    /// @notice Transfer ownership of an NFT -- THE CALLER IS RESPONSIBLE\n    ///  TO CONFIRM THAT `_to` IS CAPABLE OF RECEIVING NFTS OR ELSE\n    ///  THEY MAY BE PERMANENTLY LOST\n    /// @dev Throws unless `msg.sender` is the current owner, an authorized\n    ///  operator, or the approved address for this NFT. Throws if `_from` is\n    ///  not the current owner. Throws if `_to` is the zero address. Throws if\n    ///  `_tokenId` is not a valid NFT.\n    /// @param _from The current owner of the NFT\n    /// @param _to The new owner\n    /// @param _tokenId The NFT to transfer\n    function transferFrom(address _from, address _to, uint256 _tokenId) external payable {\n        _tokenApprovals[_tokenId] = _to;\n        _balances[_from] -= 1;\n        _balances[_to] += 1;\n    }\n}",
  "sourcePath": "/Users/paschmaria/Projects/Personal/nft-marketplace/src/contracts/ERC721.sol",
  "compiler": {
    "name": "solc",
    "version": "0.8.11+commit.d7f03943.Emscripten.clang"
  },
  "schemaVersion": "3.4.4",
  "updatedAt": "2022-01-21T13:16:30.081Z",
  "devdoc": {
    "kind": "dev",
    "methods": {
      "balanceOf(address)": {
        "details": "NFTs assigned to the zero address are considered invalid, and this  function throws for queries about the zero address.",
        "params": {
          "_owner": "An address for whom to query the balance"
        },
        "returns": {
          "_0": "The number of NFTs owned by `_owner`, possibly zero"
        }
      },
      "ownerOf(uint256)": {
        "details": "NFTs assigned to zero address are considered invalid, and queries  about them do throw.",
        "params": {
          "_tokenId": "The identifier for an NFT"
        },
        "returns": {
          "_0": "The address of the owner of the NFT"
        }
      },
      "transferFrom(address,address,uint256)": {
        "details": "Throws unless `msg.sender` is the current owner, an authorized  operator, or the approved address for this NFT. Throws if `_from` is  not the current owner. Throws if `_to` is the zero address. Throws if  `_tokenId` is not a valid NFT.",
        "params": {
          "_from": "The current owner of the NFT",
          "_to": "The new owner",
          "_tokenId": "The NFT to transfer"
        }
      }
    },
    "version": 1
  },
  "userdoc": {
    "kind": "user",
    "methods": {
      "balanceOf(address)": {
        "notice": "Count all NFTs assigned to an owner"
      },
      "ownerOf(uint256)": {
        "notice": "Find the owner of an NFT"
      },
      "transferFrom(address,address,uint256)": {
        "notice": "Transfer ownership of an NFT -- THE CALLER IS RESPONSIBLE  TO CONFIRM THAT `_to` IS CAPABLE OF RECEIVING NFTS OR ELSE  THEY MAY BE PERMANENTLY LOST"
      }
    },
    "notice": "Building out the minting function: a. NFT to point to an Address b. Keep track of token IDs c. Keep track of token owner addresses to token ID d. Keep track of how many tokens an address has e. Create an event that emits a Transfer log: contract address, where it's minted to and IDs",
    "version": 1
  }
}