{
  "contractName": "KryptoBird",
  "abi": [
    {
      "inputs": [],
      "stateMutability": "nonpayable",
      "type": "constructor"
    },
    {
      "anonymous": false,
      "inputs": [
        {
          "indexed": true,
          "internalType": "address",
          "name": "from",
          "type": "address"
        },
        {
          "indexed": true,
          "internalType": "address",
          "name": "to",
          "type": "address"
        },
        {
          "indexed": true,
          "internalType": "uint256",
          "name": "tokenId",
          "type": "uint256"
        }
      ],
      "name": "Transfer",
      "type": "event"
    },
    {
      "inputs": [],
      "name": "_name",
      "outputs": [
        {
          "internalType": "string",
          "name": "",
          "type": "string"
        }
      ],
      "stateMutability": "view",
      "type": "function",
      "constant": true
    },
    {
      "inputs": [],
      "name": "_symbol",
      "outputs": [
        {
          "internalType": "string",
          "name": "",
          "type": "string"
        }
      ],
      "stateMutability": "view",
      "type": "function",
      "constant": true
    },
    {
      "inputs": [
        {
          "internalType": "address",
          "name": "_owner",
          "type": "address"
        }
      ],
      "name": "balanceOf",
      "outputs": [
        {
          "internalType": "uint256",
          "name": "",
          "type": "uint256"
        }
      ],
      "stateMutability": "view",
      "type": "function",
      "constant": true
    },
    {
      "inputs": [
        {
          "internalType": "uint256",
          "name": "",
          "type": "uint256"
        }
      ],
      "name": "kryptoBirdz",
      "outputs": [
        {
          "internalType": "string",
          "name": "",
          "type": "string"
        }
      ],
      "stateMutability": "view",
      "type": "function",
      "constant": true
    },
    {
      "inputs": [],
      "name": "name",
      "outputs": [
        {
          "internalType": "string",
          "name": "",
          "type": "string"
        }
      ],
      "stateMutability": "view",
      "type": "function",
      "constant": true
    },
    {
      "inputs": [
        {
          "internalType": "uint256",
          "name": "_tokenId",
          "type": "uint256"
        }
      ],
      "name": "ownerOf",
      "outputs": [
        {
          "internalType": "address",
          "name": "",
          "type": "address"
        }
      ],
      "stateMutability": "view",
      "type": "function",
      "constant": true
    },
    {
      "inputs": [],
      "name": "symbol",
      "outputs": [
        {
          "internalType": "string",
          "name": "",
          "type": "string"
        }
      ],
      "stateMutability": "view",
      "type": "function",
      "constant": true
    },
    {
      "inputs": [
        {
          "internalType": "uint256",
          "name": "_index",
          "type": "uint256"
        }
      ],
      "name": "tokenByIndex",
      "outputs": [
        {
          "internalType": "uint256",
          "name": "",
          "type": "uint256"
        }
      ],
      "stateMutability": "view",
      "type": "function",
      "constant": true
    },
    {
      "inputs": [
        {
          "internalType": "address",
          "name": "_owner",
          "type": "address"
        },
        {
          "internalType": "uint256",
          "name": "_index",
          "type": "uint256"
        }
      ],
      "name": "tokenOfOwnerByIndex",
      "outputs": [
        {
          "internalType": "uint256",
          "name": "",
          "type": "uint256"
        }
      ],
      "stateMutability": "view",
      "type": "function",
      "constant": true
    },
    {
      "inputs": [],
      "name": "totalSupply",
      "outputs": [
        {
          "internalType": "uint256",
          "name": "",
          "type": "uint256"
        }
      ],
      "stateMutability": "view",
      "type": "function",
      "constant": true
    },
    {
      "inputs": [
        {
          "internalType": "address",
          "name": "_from",
          "type": "address"
        },
        {
          "internalType": "address",
          "name": "_to",
          "type": "address"
        },
        {
          "internalType": "uint256",
          "name": "_tokenId",
          "type": "uint256"
        }
      ],
      "name": "transferFrom",
      "outputs": [],
      "stateMutability": "payable",
      "type": "function",
      "payable": true
    },
    {
      "inputs": [
        {
          "internalType": "string",
          "name": "_kryptoBird",
          "type": "string"
        }
      ],
      "name": "mint",
      "outputs": [],
      "stateMutability": "nonpayable",
      "type": "function"
    }
  ],
  "bytecode": "0x60806040523480156200001157600080fd5b506040518060400160405280600a81526020017f4b727970746f42697264000000000000000000000000000000000000000000008152506040518060400160405280600681526020017f4b424952445a00000000000000000000000000000000000000000000000000008152508181816000908051906020019062000098929190620000bc565b508060019080519060200190620000b1929190620000bc565b5050505050620001d1565b828054620000ca906200019b565b90600052602060002090601f016020900481019282620000ee57600085556200013a565b82601f106200010957805160ff19168380011785556200013a565b828001600101855582156200013a579182015b82811115620001395782518255916020019190600101906200011c565b5b5090506200014991906200014d565b5090565b5b80821115620001685760008160009055506001016200014e565b5090565b7f4e487b7100000000000000000000000000000000000000000000000000000000600052602260045260246000fd5b60006002820490506001821680620001b457607f821691505b60208210811415620001cb57620001ca6200016c565b5b50919050565b6117c480620001e16000396000f3fe6080604052600436106100a75760003560e01c806370a082311161006457806370a08231146101d557806393ab6e561461021257806395d89b411461024f578063b09f12661461027a578063d28d8852146102a5578063d85d3d27146102d0576100a7565b806306fdde03146100ac57806318160ddd146100d757806323b872dd146101025780632f745c591461011e5780634f6ccce71461015b5780636352211e14610198575b600080fd5b3480156100b857600080fd5b506100c16102f9565b6040516100ce9190610f29565b60405180910390f35b3480156100e357600080fd5b506100ec61038b565b6040516100f99190610f64565b60405180910390f35b61011c6004803603810190610117919061101d565b610398565b005b34801561012a57600080fd5b5061014560048036038101906101409190611070565b61049d565b6040516101529190610f64565b60405180910390f35b34801561016757600080fd5b50610182600480360381019061017d91906110b0565b61054d565b60405161018f9190610f64565b60405180910390f35b3480156101a457600080fd5b506101bf60048036038101906101ba91906110b0565b6105be565b6040516101cc91906110ec565b60405180910390f35b3480156101e157600080fd5b506101fc60048036038101906101f79190611107565b610670565b6040516102099190610f64565b60405180910390f35b34801561021e57600080fd5b50610239600480360381019061023491906110b0565b610728565b6040516102469190610f29565b60405180910390f35b34801561025b57600080fd5b506102646107d4565b6040516102719190610f29565b60405180910390f35b34801561028657600080fd5b5061028f610866565b60405161029c9190610f29565b60405180910390f35b3480156102b157600080fd5b506102ba6108f4565b6040516102c79190610f29565b60405180910390f35b3480156102dc57600080fd5b506102f760048036038101906102f29190611269565b610982565b005b606060008054610308906112e1565b80601f0160208091040260200160405190810160405280929190818152602001828054610334906112e1565b80156103815780601f1061035657610100808354040283529160200191610381565b820191906000526020600020905b81548152906001019060200180831161036457829003601f168201915b5050505050905090565b6000600580549050905090565b816004600083815260200190815260200160002060006101000a81548173ffffffffffffffffffffffffffffffffffffffff021916908373ffffffffffffffffffffffffffffffffffffffff1602179055506001600360008573ffffffffffffffffffffffffffffffffffffffff1673ffffffffffffffffffffffffffffffffffffffff168152602001908152602001600020600082825461043a9190611342565b925050819055506001600360008473ffffffffffffffffffffffffffffffffffffffff1673ffffffffffffffffffffffffffffffffffffffff16815260200190815260200160002060008282546104919190611376565b92505081905550505050565b60006104a883610670565b82106104e9576040517f08c379a00000000000000000000000000000000000000000000000000000000081526004016104e090611418565b60405180910390fd5b600760008473ffffffffffffffffffffffffffffffffffffffff1673ffffffffffffffffffffffffffffffffffffffff168152602001908152602001600020828154811061053a57610539611438565b5b9060005260206000200154905092915050565b600061055761038b565b8210610598576040517f08c379a000000000000000000000000000000000000000000000000000000000815260040161058f906114b3565b60405180910390fd5b600582815481106105ac576105ab611438565b5b90600052602060002001549050919050565b6000806002600084815260200190815260200160002060009054906101000a900473ffffffffffffffffffffffffffffffffffffffff169050600073ffffffffffffffffffffffffffffffffffffffff168173ffffffffffffffffffffffffffffffffffffffff161415610667576040517f08c379a000000000000000000000000000000000000000000000000000000000815260040161065e9061151f565b60405180910390fd5b80915050919050565b60008073ffffffffffffffffffffffffffffffffffffffff168273ffffffffffffffffffffffffffffffffffffffff1614156106e1576040517f08c379a00000000000000000000000000000000000000000000000000000000081526004016106d89061158b565b60405180910390fd5b600360008373ffffffffffffffffffffffffffffffffffffffff1673ffffffffffffffffffffffffffffffffffffffff168152602001908152602001600020549050919050565b6009818154811061073857600080fd5b906000526020600020016000915090508054610753906112e1565b80601f016020809104026020016040519081016040528092919081815260200182805461077f906112e1565b80156107cc5780601f106107a1576101008083540402835291602001916107cc565b820191906000526020600020905b8154815290600101906020018083116107af57829003601f168201915b505050505081565b6060600180546107e3906112e1565b80601f016020809104026020016040519081016040528092919081815260200182805461080f906112e1565b801561085c5780601f106108315761010080835404028352916020019161085c565b820191906000526020600020905b81548152906001019060200180831161083f57829003601f168201915b5050505050905090565b60018054610873906112e1565b80601f016020809104026020016040519081016040528092919081815260200182805461089f906112e1565b80156108ec5780601f106108c1576101008083540402835291602001916108ec565b820191906000526020600020905b8154815290600101906020018083116108cf57829003601f168201915b505050505081565b60008054610901906112e1565b80601f016020809104026020016040519081016040528092919081815260200182805461092d906112e1565b801561097a5780601f1061094f5761010080835404028352916020019161097a565b820191906000526020600020905b81548152906001019060200180831161095d57829003601f168201915b505050505081565b600a8160405161099291906115e7565b908152602001604051809103902060009054906101000a900460ff16156109ee576040517f08c379a00000000000000000000000000000000000000000000000000000000081526004016109e59061164a565b60405180910390fd5b600981908060018154018082558091505060019003906000526020600020016000909190919091509080519060200190610a29929190610ded565b5060006001600980549050610a3e9190611342565b9050610a4a3382610a85565b6001600a83604051610a5c91906115e7565b908152602001604051809103902060006101000a81548160ff0219169083151502179055505050565b610a8f8282610aa6565b610a9881610c68565b610aa28282610cb7565b5050565b600073ffffffffffffffffffffffffffffffffffffffff168273ffffffffffffffffffffffffffffffffffffffff161415610b16576040517f08c379a0000000000000000000000000000000000000000000000000000000008152600401610b0d906116dc565b60405180910390fd5b610b1f81610d7b565b15610b5f576040517f08c379a0000000000000000000000000000000000000000000000000000000008152600401610b569061176e565b60405180910390fd5b816002600083815260200190815260200160002060006101000a81548173ffffffffffffffffffffffffffffffffffffffff021916908373ffffffffffffffffffffffffffffffffffffffff1602179055506001600360008473ffffffffffffffffffffffffffffffffffffffff1673ffffffffffffffffffffffffffffffffffffffff1681526020019081526020016000206000828254610c019190611376565b92505081905550808273ffffffffffffffffffffffffffffffffffffffff16600073ffffffffffffffffffffffffffffffffffffffff167fddf252ad1be2c89b69c2b068fc378daa952ba7f163c4a11628f55a4df523b3ef60405160405180910390a45050565b6000600580549050905080600660008481526020019081526020016000208190555060058290806001815401808255809150506001900390600052602060002001600090919091909150555050565b600760008373ffffffffffffffffffffffffffffffffffffffff1673ffffffffffffffffffffffffffffffffffffffff168152602001908152602001600020805490506008600083815260200190815260200160002081905550600760008373ffffffffffffffffffffffffffffffffffffffff1673ffffffffffffffffffffffffffffffffffffffff1681526020019081526020016000208190806001815401808255809150506001900390600052602060002001600090919091909150555050565b6000806002600084815260200190815260200160002060009054906101000a900473ffffffffffffffffffffffffffffffffffffffff169050600073ffffffffffffffffffffffffffffffffffffffff168173ffffffffffffffffffffffffffffffffffffffff161415915050919050565b828054610df9906112e1565b90600052602060002090601f016020900481019282610e1b5760008555610e62565b82601f10610e3457805160ff1916838001178555610e62565b82800160010185558215610e62579182015b82811115610e61578251825591602001919060010190610e46565b5b509050610e6f9190610e73565b5090565b5b80821115610e8c576000816000905550600101610e74565b5090565b600081519050919050565b600082825260208201905092915050565b60005b83811015610eca578082015181840152602081019050610eaf565b83811115610ed9576000848401525b50505050565b6000601f19601f8301169050919050565b6000610efb82610e90565b610f058185610e9b565b9350610f15818560208601610eac565b610f1e81610edf565b840191505092915050565b60006020820190508181036000830152610f438184610ef0565b905092915050565b6000819050919050565b610f5e81610f4b565b82525050565b6000602082019050610f796000830184610f55565b92915050565b6000604051905090565b600080fd5b600080fd5b600073ffffffffffffffffffffffffffffffffffffffff82169050919050565b6000610fbe82610f93565b9050919050565b610fce81610fb3565b8114610fd957600080fd5b50565b600081359050610feb81610fc5565b92915050565b610ffa81610f4b565b811461100557600080fd5b50565b60008135905061101781610ff1565b92915050565b60008060006060848603121561103657611035610f89565b5b600061104486828701610fdc565b935050602061105586828701610fdc565b925050604061106686828701611008565b9150509250925092565b6000806040838503121561108757611086610f89565b5b600061109585828601610fdc565b92505060206110a685828601611008565b9150509250929050565b6000602082840312156110c6576110c5610f89565b5b60006110d484828501611008565b91505092915050565b6110e681610fb3565b82525050565b600060208201905061110160008301846110dd565b92915050565b60006020828403121561111d5761111c610f89565b5b600061112b84828501610fdc565b91505092915050565b600080fd5b600080fd5b7f4e487b7100000000000000000000000000000000000000000000000000000000600052604160045260246000fd5b61117682610edf565b810181811067ffffffffffffffff821117156111955761119461113e565b5b80604052505050565b60006111a8610f7f565b90506111b4828261116d565b919050565b600067ffffffffffffffff8211156111d4576111d361113e565b5b6111dd82610edf565b9050602081019050919050565b82818337600083830152505050565b600061120c611207846111b9565b61119e565b90508281526020810184848401111561122857611227611139565b5b6112338482856111ea565b509392505050565b600082601f8301126112505761124f611134565b5b81356112608482602086016111f9565b91505092915050565b60006020828403121561127f5761127e610f89565b5b600082013567ffffffffffffffff81111561129d5761129c610f8e565b5b6112a98482850161123b565b91505092915050565b7f4e487b7100000000000000000000000000000000000000000000000000000000600052602260045260246000fd5b600060028204905060018216806112f957607f821691505b6020821081141561130d5761130c6112b2565b5b50919050565b7f4e487b7100000000000000000000000000000000000000000000000000000000600052601160045260246000fd5b600061134d82610f4b565b915061135883610f4b565b92508282101561136b5761136a611313565b5b828203905092915050565b600061138182610f4b565b915061138c83610f4b565b9250827fffffffffffffffffffffffffffffffffffffffffffffffffffffffffffffffff038211156113c1576113c0611313565b5b828201905092915050565b7f4f776e657220696e646578206973206f7574206f662062616c616e6365000000600082015250565b6000611402601d83610e9b565b915061140d826113cc565b602082019050919050565b60006020820190508181036000830152611431816113f5565b9050919050565b7f4e487b7100000000000000000000000000000000000000000000000000000000600052603260045260246000fd5b7f496e6465782067726561746572207468616e20746f74616c20737570706c7900600082015250565b600061149d601f83610e9b565b91506114a882611467565b602082019050919050565b600060208201905081810360008301526114cc81611490565b9050919050565b7f546f6b656e204944206e6f742076616c69642100000000000000000000000000600082015250565b6000611509601383610e9b565b9150611514826114d3565b602082019050919050565b60006020820190508181036000830152611538816114fc565b9050919050565b7f41646472657373206d75737420626520612076616c6964206164647265737300600082015250565b6000611575601f83610e9b565b91506115808261153f565b602082019050919050565b600060208201905081810360008301526115a481611568565b9050919050565b600081905092915050565b60006115c182610e90565b6115cb81856115ab565b93506115db818560208601610eac565b80840191505092915050565b60006115f382846115b6565b915081905092915050565b7f4572726f72202d204b727970746f426972642065786973747321000000000000600082015250565b6000611634601a83610e9b565b915061163f826115fe565b602082019050919050565b6000602082019050818103600083015261166381611627565b9050919050565b7f4552433732313a206d696e742061646472657373206d7573742062652061207660008201527f616c696420616464726573732100000000000000000000000000000000000000602082015250565b60006116c6602d83610e9b565b91506116d18261166a565b604082019050919050565b600060208201905081810360008301526116f5816116b9565b9050919050565b7f4552433732313a20746f6b656e2068617320616c7265616479206265656e206d60008201527f696e746564210000000000000000000000000000000000000000000000000000602082015250565b6000611758602683610e9b565b9150611763826116fc565b604082019050919050565b600060208201905081810360008301526117878161174b565b905091905056fea264697066735822122058dd5718a9b8d6e71c025f9ba0295431128e4f0d6b85c03494c046dff0d3e8ad64736f6c634300080b0033",
  "immutableReferences": {},
  "source": "// SPDX-License-Identifier: MIT\npragma solidity ^0.8.11;\n\nimport './ERC721Connector.sol';\n\n\ncontract KryptoBird is ERC721Connector {\n\n    string[] public kryptoBirdz;\n\n    mapping(string => bool) _kryptoBirdExists;\n\n    function mint(string memory _kryptoBird) public {\n        require(!_kryptoBirdExists[_kryptoBird], 'Error - KryptoBird exists!');\n\n        kryptoBirdz.push(_kryptoBird);\n        uint256 _id = kryptoBirdz.length - 1;\n\n        _mint(msg.sender, _id);\n        _kryptoBirdExists[_kryptoBird] = true;\n    }\n\n    constructor() ERC721Connector('KryptoBird', 'KBIRDZ') {\n        \n    }\n\n}\n",
  "sourcePath": "/Users/paschmaria/Projects/Personal/nft-marketplace/src/contracts/KryptoBirdz.sol",
  "compiler": {
    "name": "solc",
    "version": "0.8.11+commit.d7f03943.Emscripten.clang"
  },
  "schemaVersion": "3.4.4",
  "updatedAt": "2022-01-21T14:26:46.934Z",
  "networkType": "ethereum",
  "devdoc": {
    "kind": "dev",
    "methods": {
      "balanceOf(address)": {
        "details": "NFTs assigned to the zero address are considered invalid, and this  function throws for queries about the zero address.",
        "params": {
          "_owner": "An address for whom to query the balance"
        },
        "returns": {
          "_0": "The number of NFTs owned by `_owner`, possibly zero"
        }
      },
      "ownerOf(uint256)": {
        "details": "NFTs assigned to zero address are considered invalid, and queries  about them do throw.",
        "params": {
          "_tokenId": "The identifier for an NFT"
        },
        "returns": {
          "_0": "The address of the owner of the NFT"
        }
      },
      "tokenByIndex(uint256)": {
        "details": "Throws if `_index` >= `totalSupply()`.",
        "params": {
          "_index": "A counter less than `totalSupply()`"
        },
        "returns": {
          "_0": "The token identifier for the `_index`th NFT,  (sort order not specified)"
        }
      },
      "tokenOfOwnerByIndex(address,uint256)": {
        "details": "Throws if `_index` >= `balanceOf(_owner)` or if  `_owner` is the zero address, representing invalid NFTs.",
        "params": {
          "_index": "A counter less than `balanceOf(_owner)`",
          "_owner": "An address where we are interested in NFTs owned by them"
        },
        "returns": {
          "_0": "The token identifier for the `_index`th NFT assigned to `_owner`,   (sort order not specified)"
        }
      },
      "totalSupply()": {
        "returns": {
          "_0": "A count of valid NFTs tracked by this contract, where each one of  them has an assigned and queryable owner not equal to the zero address"
        }
      },
      "transferFrom(address,address,uint256)": {
        "details": "Throws unless `msg.sender` is the current owner, an authorized  operator, or the approved address for this NFT. Throws if `_from` is  not the current owner. Throws if `_to` is the zero address. Throws if  `_tokenId` is not a valid NFT.",
        "params": {
          "_from": "The current owner of the NFT",
          "_to": "The new owner",
          "_tokenId": "The NFT to transfer"
        }
      }
    },
    "version": 1
  },
  "userdoc": {
    "kind": "user",
    "methods": {
      "balanceOf(address)": {
        "notice": "Count all NFTs assigned to an owner"
      },
      "ownerOf(uint256)": {
        "notice": "Find the owner of an NFT"
      },
      "tokenByIndex(uint256)": {
        "notice": "Enumerate valid NFTs"
      },
      "tokenOfOwnerByIndex(address,uint256)": {
        "notice": "Enumerate NFTs assigned to an owner"
      },
      "totalSupply()": {
        "notice": "Count NFTs tracked by this contract"
      },
      "transferFrom(address,address,uint256)": {
        "notice": "Transfer ownership of an NFT -- THE CALLER IS RESPONSIBLE  TO CONFIRM THAT `_to` IS CAPABLE OF RECEIVING NFTS OR ELSE  THEY MAY BE PERMANENTLY LOST"
      }
    },
    "version": 1
  }
}